{
  "address": "0x49a33cb12a17e75e9Ffd17F28E78cc844b7066ea",
  "abi": [
    {
      "anonymous": false,
      "inputs": [
        {
          "indexed": true,
          "internalType": "address",
          "name": "from",
          "type": "address"
        },
        {
          "indexed": true,
          "internalType": "address",
          "name": "to",
          "type": "address"
        },
        {
          "indexed": false,
          "internalType": "uint256",
          "name": "amount",
          "type": "uint256"
        }
      ],
      "name": "FundsTransferred",
      "type": "event"
    },
    {
      "anonymous": false,
      "inputs": [
        {
          "indexed": true,
          "internalType": "address",
          "name": "buyer",
          "type": "address"
        },
        {
          "indexed": false,
          "internalType": "string",
          "name": "productId",
          "type": "string"
        },
        {
          "indexed": false,
          "internalType": "uint256",
          "name": "quantity",
          "type": "uint256"
        },
        {
          "indexed": false,
          "internalType": "uint256",
          "name": "amountPaid",
          "type": "uint256"
        }
      ],
      "name": "ProductSold",
      "type": "event"
    },
    {
      "inputs": [
        {
          "internalType": "address",
          "name": "",
          "type": "address"
        },
        {
          "internalType": "uint256",
          "name": "",
          "type": "uint256"
        }
      ],
      "name": "sales",
      "outputs": [
        {
          "internalType": "string",
          "name": "productId",
          "type": "string"
        },
        {
          "internalType": "uint256",
          "name": "quantity",
          "type": "uint256"
        },
        {
          "internalType": "uint256",
          "name": "amountPaid",
          "type": "uint256"
        }
      ],
      "stateMutability": "view",
      "type": "function"
    },
    {
      "inputs": [
        {
          "internalType": "address",
          "name": "_buyer",
          "type": "address"
        },
        {
          "internalType": "string",
          "name": "_productId",
          "type": "string"
        },
        {
          "internalType": "uint256",
          "name": "_quantity",
          "type": "uint256"
        },
        {
          "internalType": "uint256",
          "name": "_amountPaid",
          "type": "uint256"
        }
      ],
      "name": "sellProduct",
      "outputs": [],
      "stateMutability": "nonpayable",
      "type": "function"
    },
    {
      "inputs": [
        {
          "internalType": "address",
          "name": "",
          "type": "address"
        }
      ],
      "name": "totalSales",
      "outputs": [
        {
          "internalType": "uint256",
          "name": "",
          "type": "uint256"
        }
      ],
      "stateMutability": "view",
      "type": "function"
    }
  ],
  "transactionHash": "0xbeb0ee4f1ea4dbefe5587b404897fd5e631b2502edaf441a617a1fa12c832535",
  "args": [],
  "numDeployments": 1,
  "solcInputHash": "101d0b5077c862e46e9122be7b91fd7c",
  "bytecode": "0x608060405234801561001057600080fd5b50610753806100206000396000f3fe608060405234801561001057600080fd5b50600436106100415760003560e01c80632e4c7e88146100465780633a1c83ac14610079578063bf5ff0391461009b575b600080fd5b61006661005436600461041d565b60016020526000908152604090205481565b6040519081526020015b60405180910390f35b61008c61008736600461043f565b6100b0565b60405161007093929190610469565b6100ae6100a93660046104db565b61017f565b005b600060205281600052604060002081815481106100cc57600080fd5b9060005260206000209060030201600091509150508060000180546100f0906105ad565b80601f016020809104026020016040519081016040528092919081815260200182805461011c906105ad565b80156101695780601f1061013e57610100808354040283529160200191610169565b820191906000526020600020905b81548152906001019060200180831161014c57829003601f168201915b5050505050908060010154908060020154905083565b600082116101df5760405162461bcd60e51b815260206004820152602260248201527f5175616e74697479206d7573742062652067726561746572207468616e207a65604482015261726f60f01b60648201526084015b60405180910390fd5b6040805160608101825284815260208082018590528183018490526001600160a01b03871660009081528082529283208054600181018255908452922081519192839260039091029091019081906102379082610636565b50602082015181600101556040820151816002015550508260016000876001600160a01b03166001600160a01b03168152602001908152602001600020600082825461028391906106f6565b92505081905550846001600160a01b03167f83f5150a76855ebff7289971f286153767c3692c0f67f6b2498a6b4b2897ff538585856040516102c793929190610469565b60405180910390a26102d985836102e0565b5050505050565b804710156103275760405162461bcd60e51b8152602060048201526014602482015273496e73756666696369656e742062616c616e636560601b60448201526064016101d6565b6000826001600160a01b03168260405160006040518083038185875af1925050503d8060008114610374576040519150601f19603f3d011682016040523d82523d6000602084013e610379565b606091505b50509050806103bc5760405162461bcd60e51b815260206004820152600f60248201526e151c985b9cd9995c8819985a5b1959608a1b60448201526064016101d6565b6040518281526001600160a01b0384169030907f78e6250172d8e0a57d8d41f480f13581571a2d27bb2a93f5f7bd2511f5c22a6c9060200160405180910390a3505050565b80356001600160a01b038116811461041857600080fd5b919050565b60006020828403121561042f57600080fd5b61043882610401565b9392505050565b6000806040838503121561045257600080fd5b61045b83610401565b946020939093013593505050565b606081526000845180606084015260005b81811015610497576020818801810151608086840101520161047a565b506000608082850101526080601f19601f830116840101915050836020830152826040830152949350505050565b634e487b7160e01b600052604160045260246000fd5b600080600080608085870312156104f157600080fd5b6104fa85610401565b9350602085013567ffffffffffffffff8082111561051757600080fd5b818701915087601f83011261052b57600080fd5b81358181111561053d5761053d6104c5565b604051601f8201601f19908116603f01168101908382118183101715610565576105656104c5565b816040528281528a602084870101111561057e57600080fd5b826020860160208301376000928101602001929092525095989597505050506040840135936060013592915050565b600181811c908216806105c157607f821691505b6020821081036105e157634e487b7160e01b600052602260045260246000fd5b50919050565b601f82111561063157600081815260208120601f850160051c8101602086101561060e5750805b601f850160051c820191505b8181101561062d5782815560010161061a565b5050505b505050565b815167ffffffffffffffff811115610650576106506104c5565b6106648161065e84546105ad565b846105e7565b602080601f83116001811461069957600084156106815750858301515b600019600386901b1c1916600185901b17855561062d565b600085815260208120601f198616915b828110156106c8578886015182559484019460019091019084016106a9565b50858210156106e65787850151600019600388901b60f8161c191681555b5050505050600190811b01905550565b8082018082111561071757634e487b7160e01b600052601160045260246000fd5b9291505056fea2646970667358221220efbd8088f0d0102f5e9188ed14c9288adae05d7b0ad658c0e021088460a0a6e864736f6c63430008110033",
  "devdoc": {
    "kind": "dev",
    "methods": {},
    "version": 1
  },
  "userdoc": {
    "kind": "user",
    "methods": {},
    "version": 1
  },
  "storageLayout": {
    "storage": [
      {
        "astId": 15,
        "contract": "contracts/ProductSales.sol:ProductSales",
        "label": "sales",
        "offset": 0,
        "slot": "0",
        "type": "t_mapping(t_address,t_array(t_struct(SaleRecord)9_storage)dyn_storage)"
      },
      {
        "astId": 19,
        "contract": "contracts/ProductSales.sol:ProductSales",
        "label": "totalSales",
        "offset": 0,
        "slot": "1",
        "type": "t_mapping(t_address,t_uint256)"
      }
    ],
    "types": {
      "t_address": {
        "encoding": "inplace",
        "label": "address",
        "numberOfBytes": "20"
      },
      "t_array(t_struct(SaleRecord)9_storage)dyn_storage": {
        "base": "t_struct(SaleRecord)9_storage",
        "encoding": "dynamic_array",
        "label": "struct ProductSales.SaleRecord[]",
        "numberOfBytes": "32"
      },
      "t_mapping(t_address,t_array(t_struct(SaleRecord)9_storage)dyn_storage)": {
        "encoding": "mapping",
        "key": "t_address",
        "label": "mapping(address => struct ProductSales.SaleRecord[])",
        "numberOfBytes": "32",
        "value": "t_array(t_struct(SaleRecord)9_storage)dyn_storage"
      },
      "t_mapping(t_address,t_uint256)": {
        "encoding": "mapping",
        "key": "t_address",
        "label": "mapping(address => uint256)",
        "numberOfBytes": "32",
        "value": "t_uint256"
      },
      "t_string_storage": {
        "encoding": "bytes",
        "label": "string",
        "numberOfBytes": "32"
      },
      "t_struct(SaleRecord)9_storage": {
        "encoding": "inplace",
        "label": "struct ProductSales.SaleRecord",
        "members": [
          {
            "astId": 4,
            "contract": "contracts/ProductSales.sol:ProductSales",
            "label": "productId",
            "offset": 0,
            "slot": "0",
            "type": "t_string_storage"
          },
          {
            "astId": 6,
            "contract": "contracts/ProductSales.sol:ProductSales",
            "label": "quantity",
            "offset": 0,
            "slot": "1",
            "type": "t_uint256"
          },
          {
            "astId": 8,
            "contract": "contracts/ProductSales.sol:ProductSales",
            "label": "amountPaid",
            "offset": 0,
            "slot": "2",
            "type": "t_uint256"
          }
        ],
        "numberOfBytes": "96"
      },
      "t_uint256": {
        "encoding": "inplace",
        "label": "uint256",
        "numberOfBytes": "32"
      }
    }
  }
}