{
  "address": "0xD724f64841917465AF364B6858D6eD7E3765D0eb",
  "abi": [
    {
      "anonymous": false,
      "inputs": [
        {
          "indexed": true,
          "internalType": "address",
          "name": "from",
          "type": "address"
        },
        {
          "indexed": true,
          "internalType": "address",
          "name": "to",
          "type": "address"
        },
        {
          "indexed": false,
          "internalType": "uint256",
          "name": "amount",
          "type": "uint256"
        }
      ],
      "name": "FundsTransferred",
      "type": "event"
    },
    {
      "anonymous": false,
      "inputs": [
        {
          "indexed": true,
          "internalType": "address",
          "name": "buyer",
          "type": "address"
        },
        {
          "indexed": false,
          "internalType": "string",
          "name": "productId",
          "type": "string"
        },
        {
          "indexed": false,
          "internalType": "uint256",
          "name": "quantity",
          "type": "uint256"
        },
        {
          "indexed": false,
          "internalType": "uint256",
          "name": "amountPaid",
          "type": "uint256"
        }
      ],
      "name": "ProductSold",
      "type": "event"
    },
    {
      "inputs": [
        {
          "internalType": "address",
          "name": "",
          "type": "address"
        },
        {
          "internalType": "uint256",
          "name": "",
          "type": "uint256"
        }
      ],
      "name": "sales",
      "outputs": [
        {
          "internalType": "string",
          "name": "productId",
          "type": "string"
        },
        {
          "internalType": "uint256",
          "name": "quantity",
          "type": "uint256"
        },
        {
          "internalType": "uint256",
          "name": "amountPaid",
          "type": "uint256"
        }
      ],
      "stateMutability": "view",
      "type": "function"
    },
    {
      "inputs": [
        {
          "internalType": "address payable",
          "name": "_seller",
          "type": "address"
        },
        {
          "internalType": "string",
          "name": "_productId",
          "type": "string"
        },
        {
          "internalType": "uint256",
          "name": "_quantity",
          "type": "uint256"
        }
      ],
      "name": "sellProduct",
      "outputs": [],
      "stateMutability": "payable",
      "type": "function"
    },
    {
      "inputs": [
        {
          "internalType": "address",
          "name": "",
          "type": "address"
        }
      ],
      "name": "totalSales",
      "outputs": [
        {
          "internalType": "uint256",
          "name": "",
          "type": "uint256"
        }
      ],
      "stateMutability": "view",
      "type": "function"
    }
  ],
  "transactionHash": "0xd5cb6a93bd52da688ba32e7ddb992a2dcfebcdf9efe3914ed002812a1dd7617d",
  "args": [],
  "numDeployments": 1,
  "solcInputHash": "436babc92c011240d14d6e4abec89816",
  "bytecode": "0x608060405234801561001057600080fd5b506107ba806100206000396000f3fe6080604052600436106100345760003560e01c8063067f046a146100395780632e4c7e881461004e5780633a1c83ac1461008e575b600080fd5b61004c610047366004610487565b6100bd565b005b34801561005a57600080fd5b5061007b610069366004610554565b60016020526000908152604090205481565b6040519081526020015b60405180910390f35b34801561009a57600080fd5b506100ae6100a9366004610571565b61027d565b6040516100859392919061059d565b60006100c88261034c565b905033348211156101205760405162461bcd60e51b815260206004820152601760248201527f496e73756666696369656e742066756e64732073656e7400000000000000000060448201526064015b60405180910390fd5b6000831161017b5760405162461bcd60e51b815260206004820152602260248201527f5175616e74697479206d7573742062652067726561746572207468616e207a65604482015261726f60f01b6064820152608401610117565b6040805160608101825285815260208082018690528183018590526001600160a01b03841660009081528082529283208054600181018255908452922081519192839260039091029091019081906101d3908261067e565b50602082015181600101556040820151816002015550508260016000846001600160a01b03166001600160a01b03168152602001908152602001600020600082825461021f9190610754565b92505081905550816001600160a01b03167f83f5150a76855ebff7289971f286153767c3692c0f67f6b2498a6b4b2897ff538686866040516102639392919061059d565b60405180910390a26102758684610365565b505050505050565b6000602052816000526040600020818154811061029957600080fd5b9060005260206000209060030201600091509150508060000180546102bd906105f9565b80601f01602080910402602001604051908101604052809291908181526020018280546102e9906105f9565b80156103365780601f1061030b57610100808354040283529160200191610336565b820191906000526020600020905b81548152906001019060200180831161031957829003601f168201915b5050505050908060010154908060020154905083565b600064e8d4a5100061035e818461076d565b9392505050565b804710156103ac5760405162461bcd60e51b8152602060048201526014602482015273496e73756666696369656e742062616c616e636560601b6044820152606401610117565b6040516000906001600160a01b0384169083156108fc0290849084818181858888f193505050509050806104145760405162461bcd60e51b815260206004820152600f60248201526e151c985b9cd9995c8819985a5b1959608a1b6044820152606401610117565b6040518281526001600160a01b0384169030907f78e6250172d8e0a57d8d41f480f13581571a2d27bb2a93f5f7bd2511f5c22a6c9060200160405180910390a3505050565b6001600160a01b038116811461046e57600080fd5b50565b634e487b7160e01b600052604160045260246000fd5b60008060006060848603121561049c57600080fd5b83356104a781610459565b9250602084013567ffffffffffffffff808211156104c457600080fd5b818601915086601f8301126104d857600080fd5b8135818111156104ea576104ea610471565b604051601f8201601f19908116603f0116810190838211818310171561051257610512610471565b8160405282815289602084870101111561052b57600080fd5b826020860160208301376000602084830101528096505050505050604084013590509250925092565b60006020828403121561056657600080fd5b813561035e81610459565b6000806040838503121561058457600080fd5b823561058f81610459565b946020939093013593505050565b606081526000845180606084015260005b818110156105cb57602081880181015160808684010152016105ae565b506000608082850101526080601f19601f830116840101915050836020830152826040830152949350505050565b600181811c9082168061060d57607f821691505b60208210810361062d57634e487b7160e01b600052602260045260246000fd5b50919050565b601f82111561067957600081815260208120601f850160051c8101602086101561065a5750805b601f850160051c820191505b8181101561027557828155600101610666565b505050565b815167ffffffffffffffff81111561069857610698610471565b6106ac816106a684546105f9565b84610633565b602080601f8311600181146106e157600084156106c95750858301515b600019600386901b1c1916600185901b178555610275565b600085815260208120601f198616915b82811015610710578886015182559484019460019091019084016106f1565b508582101561072e5787850151600019600388901b60f8161c191681555b5050505050600190811b01905550565b634e487b7160e01b600052601160045260246000fd5b808201808211156107675761076761073e565b92915050565b80820281158282048414176107675761076761073e56fea2646970667358221220f3f705b377287c3999779d7f7b2b34448441777ca1865e32abd095e0d5da071564736f6c63430008110033",
  "devdoc": {
    "kind": "dev",
    "methods": {},
    "version": 1
  },
  "userdoc": {
    "kind": "user",
    "methods": {},
    "version": 1
  },
  "storageLayout": {
    "storage": [
      {
        "astId": 15,
        "contract": "contracts/ProductSales.sol:ProductSales",
        "label": "sales",
        "offset": 0,
        "slot": "0",
        "type": "t_mapping(t_address,t_array(t_struct(SaleRecord)9_storage)dyn_storage)"
      },
      {
        "astId": 19,
        "contract": "contracts/ProductSales.sol:ProductSales",
        "label": "totalSales",
        "offset": 0,
        "slot": "1",
        "type": "t_mapping(t_address,t_uint256)"
      }
    ],
    "types": {
      "t_address": {
        "encoding": "inplace",
        "label": "address",
        "numberOfBytes": "20"
      },
      "t_array(t_struct(SaleRecord)9_storage)dyn_storage": {
        "base": "t_struct(SaleRecord)9_storage",
        "encoding": "dynamic_array",
        "label": "struct ProductSales.SaleRecord[]",
        "numberOfBytes": "32"
      },
      "t_mapping(t_address,t_array(t_struct(SaleRecord)9_storage)dyn_storage)": {
        "encoding": "mapping",
        "key": "t_address",
        "label": "mapping(address => struct ProductSales.SaleRecord[])",
        "numberOfBytes": "32",
        "value": "t_array(t_struct(SaleRecord)9_storage)dyn_storage"
      },
      "t_mapping(t_address,t_uint256)": {
        "encoding": "mapping",
        "key": "t_address",
        "label": "mapping(address => uint256)",
        "numberOfBytes": "32",
        "value": "t_uint256"
      },
      "t_string_storage": {
        "encoding": "bytes",
        "label": "string",
        "numberOfBytes": "32"
      },
      "t_struct(SaleRecord)9_storage": {
        "encoding": "inplace",
        "label": "struct ProductSales.SaleRecord",
        "members": [
          {
            "astId": 4,
            "contract": "contracts/ProductSales.sol:ProductSales",
            "label": "productId",
            "offset": 0,
            "slot": "0",
            "type": "t_string_storage"
          },
          {
            "astId": 6,
            "contract": "contracts/ProductSales.sol:ProductSales",
            "label": "quantity",
            "offset": 0,
            "slot": "1",
            "type": "t_uint256"
          },
          {
            "astId": 8,
            "contract": "contracts/ProductSales.sol:ProductSales",
            "label": "amountPaid",
            "offset": 0,
            "slot": "2",
            "type": "t_uint256"
          }
        ],
        "numberOfBytes": "96"
      },
      "t_uint256": {
        "encoding": "inplace",
        "label": "uint256",
        "numberOfBytes": "32"
      }
    }
  }
}